{
  "contractName": "MyContract",
  "abi": [
    {
      "inputs": [],
      "stateMutability": "nonpayable",
      "type": "constructor"
    },
    {
      "inputs": [],
      "name": "admin",
      "outputs": [
        {
          "internalType": "address payable",
          "name": "",
          "type": "address"
        }
      ],
      "stateMutability": "view",
      "type": "function",
      "constant": true
    },
    {
      "inputs": [],
      "name": "balanceWei",
      "outputs": [
        {
          "internalType": "uint256",
          "name": "",
          "type": "uint256"
        }
      ],
      "stateMutability": "view",
      "type": "function",
      "constant": true
    },
    {
      "inputs": [
        {
          "internalType": "uint256",
          "name": "",
          "type": "uint256"
        }
      ],
      "name": "reservations",
      "outputs": [
        {
          "internalType": "address",
          "name": "reserver",
          "type": "address"
        },
        {
          "internalType": "uint256",
          "name": "timestamp",
          "type": "uint256"
        }
      ],
      "stateMutability": "view",
      "type": "function",
      "constant": true
    },
    {
      "inputs": [
        {
          "internalType": "uint256",
          "name": "",
          "type": "uint256"
        }
      ],
      "name": "tikets",
      "outputs": [
        {
          "internalType": "address",
          "name": "",
          "type": "address"
        }
      ],
      "stateMutability": "view",
      "type": "function",
      "constant": true
    },
    {
      "inputs": [
        {
          "internalType": "address payable",
          "name": "newAdmin",
          "type": "address"
        }
      ],
      "name": "changeAdmin",
      "outputs": [],
      "stateMutability": "nonpayable",
      "type": "function"
    },
    {
      "inputs": [],
      "name": "transferbalanceToAdmin",
      "outputs": [],
      "stateMutability": "nonpayable",
      "type": "function"
    },
    {
      "inputs": [
        {
          "internalType": "uint256",
          "name": "tiketIndex",
          "type": "uint256"
        }
      ],
      "name": "isTicketAvailable",
      "outputs": [
        {
          "internalType": "bool",
          "name": "",
          "type": "bool"
        }
      ],
      "stateMutability": "nonpayable",
      "type": "function"
    },
    {
      "inputs": [
        {
          "internalType": "uint256",
          "name": "tiketIndex",
          "type": "uint256"
        }
      ],
      "name": "bookTicket",
      "outputs": [],
      "stateMutability": "nonpayable",
      "type": "function"
    },
    {
      "inputs": [
        {
          "internalType": "uint256",
          "name": "tiketIndex",
          "type": "uint256"
        }
      ],
      "name": "checkReservationTimeout",
      "outputs": [],
      "stateMutability": "nonpayable",
      "type": "function"
    },
    {
      "inputs": [
        {
          "internalType": "uint256",
          "name": "tiketIndex",
          "type": "uint256"
        }
      ],
      "name": "buyTiket",
      "outputs": [
        {
          "internalType": "bool",
          "name": "",
          "type": "bool"
        }
      ],
      "stateMutability": "payable",
      "type": "function",
      "payable": true
    },
    {
      "inputs": [
        {
          "internalType": "uint256",
          "name": "ticketIndex",
          "type": "uint256"
        },
        {
          "internalType": "address",
          "name": "newOwner",
          "type": "address"
        }
      ],
      "name": "transferTicket",
      "outputs": [],
      "stateMutability": "nonpayable",
      "type": "function"
    },
    {
      "inputs": [],
      "name": "getTikets",
      "outputs": [
        {
          "internalType": "address[16]",
          "name": "",
          "type": "address[16]"
        }
      ],
      "stateMutability": "view",
      "type": "function",
      "constant": true
    },
    {
      "inputs": [],
      "name": "getContractBalances",
      "outputs": [
        {
          "internalType": "uint256",
          "name": "",
          "type": "uint256"
        },
        {
          "internalType": "uint256",
          "name": "",
          "type": "uint256"
        }
      ],
      "stateMutability": "view",
      "type": "function",
      "constant": true
    },
    {
      "inputs": [
        {
          "internalType": "uint256",
          "name": "tiketIndex",
          "type": "uint256"
        }
      ],
      "name": "getReservation",
      "outputs": [
        {
          "components": [
            {
              "internalType": "address",
              "name": "reserver",
              "type": "address"
            },
            {
              "internalType": "uint256",
              "name": "timestamp",
              "type": "uint256"
            }
          ],
          "internalType": "struct MyContract.Reservation",
          "name": "",
          "type": "tuple"
        }
      ],
      "stateMutability": "view",
      "type": "function",
      "constant": true
    }
  ],
  "bytecode": "0x608060405260006010557350d3b84a2b1787b7704dd50c67733b6b5b293629601160006101000a81548173ffffffffffffffffffffffffffffffffffffffff021916908373ffffffffffffffffffffffffffffffffffffffff1602179055503480156200006b57600080fd5b5060005b601081101562000123576040518060400160405280600073ffffffffffffffffffffffffffffffffffffffff16815260200160008152506012600083815260200190815260200160002060008201518160000160006101000a81548173ffffffffffffffffffffffffffffffffffffffff021916908373ffffffffffffffffffffffffffffffffffffffff1602179055506020820151816001015590505080806200011a9062000163565b9150506200006f565b50620001b0565b7f4e487b7100000000000000000000000000000000000000000000000000000000600052601160045260246000fd5b6000819050919050565b6000620001708262000159565b91507fffffffffffffffffffffffffffffffffffffffffffffffffffffffffffffffff8203620001a557620001a46200012a565b5b600182019050919050565b61188680620001c06000396000f3fe6080604052600436106100dd5760003560e01c80638f2839701161007f578063d57763c311610059578063d57763c31461029e578063e8eedc08146102db578063f851a44014610318578063ffd2a7d314610343576100dd565b80638f2839701461021f5780638f62744414610248578063be4fb14d14610273576100dd565b80634d63e206116100bb5780634d63e20614610160578063679ebf1a1461019d5780636bb3b496146101c65780638aeeae49146101ef576100dd565b8063067cf832146100e257806307e58839146101205780631c91a65e14610137575b600080fd5b3480156100ee57600080fd5b5061010960048036038101906101049190610fdf565b61036f565b60405161011792919061105c565b60405180910390f35b34801561012c57600080fd5b506101356103b3565b005b34801561014357600080fd5b5061015e60048036038101906101599190610fdf565b6104b8565b005b34801561016c57600080fd5b5061018760048036038101906101829190610fdf565b610696565b6040516101949190611085565b60405180910390f35b3480156101a957600080fd5b506101c460048036038101906101bf91906110cc565b6106cc565b005b3480156101d257600080fd5b506101ed60048036038101906101e89190610fdf565b610818565b005b61020960048036038101906102049190610fdf565b6108fd565b6040516102169190611127565b60405180910390f35b34801561022b57600080fd5b5061024660048036038101906102419190611180565b610c86565b005b34801561025457600080fd5b5061025d610d5a565b60405161026a9190611258565b60405180910390f35b34801561027f57600080fd5b50610288610ddb565b6040516102959190611274565b60405180910390f35b3480156102aa57600080fd5b506102c560048036038101906102c09190610fdf565b610de1565b6040516102d291906112cd565b60405180910390f35b3480156102e757600080fd5b5061030260048036038101906102fd9190610fdf565b610e6e565b60405161030f9190611127565b60405180910390f35b34801561032457600080fd5b5061032d610f1c565b60405161033a91906112f7565b60405180910390f35b34801561034f57600080fd5b50610358610f42565b604051610366929190611312565b60405180910390f35b60126020528060005260406000206000915090508060000160009054906101000a900473ffffffffffffffffffffffffffffffffffffffff16908060010154905082565b601160009054906101000a900473ffffffffffffffffffffffffffffffffffffffff1673ffffffffffffffffffffffffffffffffffffffff163373ffffffffffffffffffffffffffffffffffffffff1614610443576040517f08c379a000000000000000000000000000000000000000000000000000000000815260040161043a90611398565b60405180910390fd5b601160009054906101000a900473ffffffffffffffffffffffffffffffffffffffff1673ffffffffffffffffffffffffffffffffffffffff166108fc6010549081150290604051600060405180830381858888f193505050501580156104ad573d6000803e3d6000fd5b506000601081905550565b600073ffffffffffffffffffffffffffffffffffffffff16600082601081106104e4576104e36113b8565b5b0160009054906101000a900473ffffffffffffffffffffffffffffffffffffffff1673ffffffffffffffffffffffffffffffffffffffff161461055c576040517f08c379a000000000000000000000000000000000000000000000000000000000815260040161055390611433565b60405180910390fd5b600073ffffffffffffffffffffffffffffffffffffffff166012600083815260200190815260200160002060000160009054906101000a900473ffffffffffffffffffffffffffffffffffffffff1673ffffffffffffffffffffffffffffffffffffffff1614610601576040517f08c379a00000000000000000000000000000000000000000000000000000000081526004016105f89061149f565b60405180910390fd5b60405180604001604052803373ffffffffffffffffffffffffffffffffffffffff168152602001428152506012600083815260200190815260200160002060008201518160000160006101000a81548173ffffffffffffffffffffffffffffffffffffffff021916908373ffffffffffffffffffffffffffffffffffffffff1602179055506020820151816001015590505050565b600081601081106106a657600080fd5b016000915054906101000a900473ffffffffffffffffffffffffffffffffffffffff1681565b600082101580156106de5750600f8211155b61071d576040517f08c379a00000000000000000000000000000000000000000000000000000000081526004016107149061150b565b60405180910390fd5b3373ffffffffffffffffffffffffffffffffffffffff1660008360108110610748576107476113b8565b5b0160009054906101000a900473ffffffffffffffffffffffffffffffffffffffff1673ffffffffffffffffffffffffffffffffffffffff16146107c0576040517f08c379a00000000000000000000000000000000000000000000000000000000081526004016107b79061159d565b60405180910390fd5b80600083601081106107d5576107d46113b8565b5b0160006101000a81548173ffffffffffffffffffffffffffffffffffffffff021916908373ffffffffffffffffffffffffffffffffffffffff1602179055505050565b607860126000838152602001908152602001600020600101544261083c91906115ec565b11801561086057506000601260008381526020019081526020016000206001015414155b156108fa576040518060400160405280600073ffffffffffffffffffffffffffffffffffffffff16815260200160008152506012600083815260200190815260200160002060008201518160000160006101000a81548173ffffffffffffffffffffffffffffffffffffffff021916908373ffffffffffffffffffffffffffffffffffffffff160217905550602082015181600101559050505b50565b60008082101580156109105750600f8211155b61094f576040517f08c379a00000000000000000000000000000000000000000000000000000000081526004016109469061166c565b60405180910390fd5b600073ffffffffffffffffffffffffffffffffffffffff166000836010811061097b5761097a6113b8565b5b0160009054906101000a900473ffffffffffffffffffffffffffffffffffffffff1673ffffffffffffffffffffffffffffffffffffffff16146109f3576040517f08c379a00000000000000000000000000000000000000000000000000000000081526004016109ea906116fe565b60405180910390fd5b662386f26fc10000341015610a3d576040517f08c379a0000000000000000000000000000000000000000000000000000000008152600401610a349061176a565b60405180910390fd5b600073ffffffffffffffffffffffffffffffffffffffff166012600084815260200190815260200160002060000160009054906101000a900473ffffffffffffffffffffffffffffffffffffffff1673ffffffffffffffffffffffffffffffffffffffff1614158015610ad257506078601260008481526020019081526020016000206001015442610acf91906115ec565b11155b15610b7c573373ffffffffffffffffffffffffffffffffffffffff166012600084815260200190815260200160002060000160009054906101000a900473ffffffffffffffffffffffffffffffffffffffff1673ffffffffffffffffffffffffffffffffffffffff1614610b7b576040517f08c379a0000000000000000000000000000000000000000000000000000000008152600401610b72906117fc565b60405180910390fd5b5b3360008360108110610b9157610b906113b8565b5b0160006101000a81548173ffffffffffffffffffffffffffffffffffffffff021916908373ffffffffffffffffffffffffffffffffffffffff1602179055503460106000828254610be2919061181c565b925050819055506040518060400160405280600073ffffffffffffffffffffffffffffffffffffffff16815260200160008152506012600084815260200190815260200160002060008201518160000160006101000a81548173ffffffffffffffffffffffffffffffffffffffff021916908373ffffffffffffffffffffffffffffffffffffffff1602179055506020820151816001015590505060019050919050565b601160009054906101000a900473ffffffffffffffffffffffffffffffffffffffff1673ffffffffffffffffffffffffffffffffffffffff163373ffffffffffffffffffffffffffffffffffffffff1614610d16576040517f08c379a0000000000000000000000000000000000000000000000000000000008152600401610d0d90611398565b60405180910390fd5b80601160006101000a81548173ffffffffffffffffffffffffffffffffffffffff021916908373ffffffffffffffffffffffffffffffffffffffff16021790555050565b610d62610f51565b6000601080602002604051908101604052809291908260108015610dd1576020028201915b8160009054906101000a900473ffffffffffffffffffffffffffffffffffffffff1673ffffffffffffffffffffffffffffffffffffffff1681526020019060010190808311610d87575b5050505050905090565b60105481565b610de9610f74565b601260008381526020019081526020016000206040518060400160405290816000820160009054906101000a900473ffffffffffffffffffffffffffffffffffffffff1673ffffffffffffffffffffffffffffffffffffffff1673ffffffffffffffffffffffffffffffffffffffff1681526020016001820154815250509050919050565b60008073ffffffffffffffffffffffffffffffffffffffff1660008360108110610e9b57610e9a6113b8565b5b0160009054906101000a900473ffffffffffffffffffffffffffffffffffffffff1673ffffffffffffffffffffffffffffffffffffffff1614610f13576040517f08c379a0000000000000000000000000000000000000000000000000000000008152600401610f0a906116fe565b60405180910390fd5b60019050919050565b601160009054906101000a900473ffffffffffffffffffffffffffffffffffffffff1681565b60008047601054915091509091565b604051806102000160405280601090602082028036833780820191505090505090565b6040518060400160405280600073ffffffffffffffffffffffffffffffffffffffff168152602001600081525090565b600080fd5b6000819050919050565b610fbc81610fa9565b8114610fc757600080fd5b50565b600081359050610fd981610fb3565b92915050565b600060208284031215610ff557610ff4610fa4565b5b600061100384828501610fca565b91505092915050565b600073ffffffffffffffffffffffffffffffffffffffff82169050919050565b60006110378261100c565b9050919050565b6110478161102c565b82525050565b61105681610fa9565b82525050565b6000604082019050611071600083018561103e565b61107e602083018461104d565b9392505050565b600060208201905061109a600083018461103e565b92915050565b6110a98161102c565b81146110b457600080fd5b50565b6000813590506110c6816110a0565b92915050565b600080604083850312156110e3576110e2610fa4565b5b60006110f185828601610fca565b9250506020611102858286016110b7565b9150509250929050565b60008115159050919050565b6111218161110c565b82525050565b600060208201905061113c6000830184611118565b92915050565b600061114d8261100c565b9050919050565b61115d81611142565b811461116857600080fd5b50565b60008135905061117a81611154565b92915050565b60006020828403121561119657611195610fa4565b5b60006111a48482850161116b565b91505092915050565b600060109050919050565b600081905092915050565b6000819050919050565b6111d68161102c565b82525050565b60006111e883836111cd565b60208301905092915050565b6000602082019050919050565b61120a816111ad565b61121481846111b8565b925061121f826111c3565b8060005b8381101561125057815161123787826111dc565b9650611242836111f4565b925050600181019050611223565b505050505050565b60006102008201905061126e6000830184611201565b92915050565b6000602082019050611289600083018461104d565b92915050565b61129881610fa9565b82525050565b6040820160008201516112b460008501826111cd565b5060208201516112c7602085018261128f565b50505050565b60006040820190506112e2600083018461129e565b92915050565b6112f181611142565b82525050565b600060208201905061130c60008301846112e8565b92915050565b6000604082019050611327600083018561104d565b611334602083018461104d565b9392505050565b600082825260208201905092915050565b7f596f7520617265206e6f74207468652061646d696e0000000000000000000000600082015250565b600061138260158361133b565b915061138d8261134c565b602082019050919050565b600060208201905081810360008301526113b181611375565b9050919050565b7f4e487b7100000000000000000000000000000000000000000000000000000000600052603260045260246000fd5b7f5469636b657420616c726561647920626f756768740000000000000000000000600082015250565b600061141d60158361133b565b9150611428826113e7565b602082019050919050565b6000602082019050818103600083015261144c81611410565b9050919050565b7f5469636b657420616c7265616479207265736572766564000000000000000000600082015250565b600061148960178361133b565b915061149482611453565b602082019050919050565b600060208201905081810360008301526114b88161147c565b9050919050565b7f496e76616c6964207469636b657420696e646578000000000000000000000000600082015250565b60006114f560148361133b565b9150611500826114bf565b602082019050919050565b60006020820190508181036000830152611524816114e8565b9050919050565b7f596f7520617265206e6f7420746865206f776e6572206f66207468652074696360008201527f6b65740000000000000000000000000000000000000000000000000000000000602082015250565b600061158760238361133b565b91506115928261152b565b604082019050919050565b600060208201905081810360008301526115b68161157a565b9050919050565b7f4e487b7100000000000000000000000000000000000000000000000000000000600052601160045260246000fd5b60006115f782610fa9565b915061160283610fa9565b925082820390508181111561161a576116196115bd565b5b92915050565b7f54686973207469636b65742063616e277420626520626f756768740000000000600082015250565b6000611656601b8361133b565b915061166182611620565b602082019050919050565b6000602082019050818103600083015261168581611649565b9050919050565b7f4e6f2074686973207469636b65742069732066726f6d206f746865722070657260008201527f736f6e0000000000000000000000000000000000000000000000000000000000602082015250565b60006116e860238361133b565b91506116f38261168c565b604082019050919050565b60006020820190508181036000830152611717816116db565b9050919050565b7f496e737566696369656e7420616d6f756e74206f6620424e4200000000000000600082015250565b600061175460198361133b565b915061175f8261171e565b602082019050919050565b6000602082019050818103600083015261178381611747565b9050919050565b7f5469636b657420726573657276656420627920616e6f7468657220706572736f60008201527f6e00000000000000000000000000000000000000000000000000000000000000602082015250565b60006117e660218361133b565b91506117f18261178a565b604082019050919050565b60006020820190508181036000830152611815816117d9565b9050919050565b600061182782610fa9565b915061183283610fa9565b925082820190508082111561184a576118496115bd565b5b9291505056fea26469706673582212208a70b4f372fe5b56ab94050ac1117f111892ddcde5d9422788e651cd1aa397ec64736f6c63430008110033",
  "immutableReferences": {},
  "source": "pragma solidity ^0.8.0;\r\n\r\ncontract MyContract {\r\n    address[16] public tikets;    \r\n    uint public balanceWei = 0;\r\n    address payable public admin  = payable(0x50d3b84a2b1787b7704DD50c67733b6b5B293629);\r\n    mapping(uint => Reservation) public reservations;\r\n    struct Reservation {\r\n        address reserver;\r\n        uint timestamp;\r\n    }\r\n\r\n    constructor() {\r\n        for (uint i = 0; i < 16; i++) {\r\n            reservations[i] = Reservation(address(0), 0);\r\n        }\r\n    }\r\n\r\n    function changeAdmin (address payable newAdmin) public {\r\n        require(msg.sender == admin, \"You are not the admin\");\r\n\r\n        admin = payable(newAdmin);\r\n    }\r\n\r\n    function transferbalanceToAdmin () public {\r\n        require(msg.sender == admin, \"You are not the admin\");\r\n        \r\n        admin.transfer(balanceWei);\r\n        balanceWei = 0;\r\n    }\r\n\r\n    function isTicketAvailable (uint tiketIndex) public returns (bool) {\r\n        // Comprobacin\r\n        require(tikets[tiketIndex] == address(0), \"No this ticket is from other person\");\r\n\r\n        return true;        \r\n    }\r\n\r\n    function bookTicket(uint tiketIndex) public {\r\n        require(tikets[tiketIndex] == address(0), \"Ticket already bought\");\r\n        require(reservations[tiketIndex].reserver == address(0), \"Ticket already reserved\");\r\n\r\n        reservations[tiketIndex] = Reservation(msg.sender, block.timestamp);\r\n    }\r\n\r\n    function checkReservationTimeout(uint tiketIndex) public {\r\n        if (block.timestamp - reservations[tiketIndex].timestamp > 120 && reservations[tiketIndex].timestamp != 0) {\r\n            reservations[tiketIndex] = Reservation(address(0), 0);\r\n        }\r\n    }\r\n\r\n    function buyTiket(uint tiketIndex) payable public returns (bool) {\r\n        // Comprobacin\r\n        require(tiketIndex >= 0 && tiketIndex <= 15, \"This ticket can't be bought\");\r\n        require(tikets[tiketIndex] == address(0), \"No this ticket is from other person\");\r\n        require(msg.value >= 0.01 ether, \"Insuficient amount of BNB\");\r\n\r\n        // Verificar si hay una reserva\r\n        if (reservations[tiketIndex].reserver != address(0) && block.timestamp - reservations[tiketIndex].timestamp <= 120) {\r\n            // Comprobacin propietario reserva\r\n            require(reservations[tiketIndex].reserver == msg.sender, \"Ticket reserved by another person\");\r\n        }\r\n\r\n        tikets[tiketIndex] = msg.sender;\r\n        balanceWei += msg.value;\r\n        reservations[tiketIndex] = Reservation(address(0), 0);\r\n\r\n        return true;\r\n    }\r\n\r\n    function transferTicket(uint ticketIndex, address newOwner) public {\r\n        require(ticketIndex >= 0 && ticketIndex <= 15, \"Invalid ticket index\");\r\n        require(tikets[ticketIndex] == msg.sender, \"You are not the owner of the ticket\");\r\n\r\n        tikets[ticketIndex] = newOwner;\r\n    }\r\n\r\n    function getTikets() public view returns (address[16] memory) {\r\n        return tikets;\r\n    }\r\n\r\n    function getContractBalances() public view returns (uint, uint) {\r\n        return (address(this).balance, balanceWei);\r\n    }\r\n    \r\n    function getReservation(uint tiketIndex) public view returns (Reservation memory) {\r\n        return reservations[tiketIndex];\r\n    }\r\n}",
  "sourcePath": "C:\\Users\\Casa\\Desktop\\NuevosEstandares\\Tickets\\bnb1\\contracts\\MyContract.sol",
  "compiler": {
    "name": "solc",
    "version": "0.8.17+commit.8df45f5f.Emscripten.clang"
  },
  "schemaVersion": "3.4.16",
  "updatedAt": "2024-01-08T15:34:51.010Z",
  "networkType": "ethereum",
  "devdoc": {
    "kind": "dev",
    "methods": {},
    "version": 1
  },
  "userdoc": {
    "kind": "user",
    "methods": {},
    "version": 1
  }
}